{
  "fileName": "Simple.sol",
  "contractName": "Simple",
  "source": "// contracts/Simple.sol\npragma solidity >=0.4.20 <0.6.0;\n\ncontract Simple {\n\n  struct Person{\n    uint id;\n    string name;\n    bool _is;\n  }\n\n  mapping(uint => Person) public mapPerson;\n  uint public Personlength;\n  event LogaddPerson(string pname);\n  event LoggetPersonById(uint pid);\n  address public admin;\n\n  function initialize() public {\n    Personlength = 0;\n    admin = msg.sender;\n  }\n\n  function addPerson( string memory pname) public {\n    mapPerson[Personlength] = Person(Personlength, pname,true);\n    Personlength += 1;\n  }\n\n  function getPersonById(uint pid) public view returns (string memory){\n    require(mapPerson[pid]._is == true, \"Person doesn’t exist\");\n    Person memory person = mapPerson[pid];\n    return person.name;\n  }\n\n}",
  "sourcePath": "contracts/Simple.sol",
  "abi": [
    {
      "anonymous": false,
      "inputs": [
        {
          "indexed": false,
          "internalType": "string",
          "name": "pname",
          "type": "string"
        }
      ],
      "name": "LogaddPerson",
      "type": "event"
    },
    {
      "anonymous": false,
      "inputs": [
        {
          "indexed": false,
          "internalType": "uint256",
          "name": "pid",
          "type": "uint256"
        }
      ],
      "name": "LoggetPersonById",
      "type": "event"
    },
    {
      "constant": true,
      "inputs": [],
      "name": "Personlength",
      "outputs": [
        {
          "internalType": "uint256",
          "name": "",
          "type": "uint256"
        }
      ],
      "payable": false,
      "stateMutability": "view",
      "type": "function"
    },
    {
      "constant": false,
      "inputs": [
        {
          "internalType": "string",
          "name": "pname",
          "type": "string"
        }
      ],
      "name": "addPerson",
      "outputs": [],
      "payable": false,
      "stateMutability": "nonpayable",
      "type": "function"
    },
    {
      "constant": true,
      "inputs": [],
      "name": "admin",
      "outputs": [
        {
          "internalType": "address",
          "name": "",
          "type": "address"
        }
      ],
      "payable": false,
      "stateMutability": "view",
      "type": "function"
    },
    {
      "constant": true,
      "inputs": [
        {
          "internalType": "uint256",
          "name": "pid",
          "type": "uint256"
        }
      ],
      "name": "getPersonById",
      "outputs": [
        {
          "internalType": "string",
          "name": "",
          "type": "string"
        }
      ],
      "payable": false,
      "stateMutability": "view",
      "type": "function"
    },
    {
      "constant": false,
      "inputs": [],
      "name": "initialize",
      "outputs": [],
      "payable": false,
      "stateMutability": "nonpayable",
      "type": "function"
    },
    {
      "constant": true,
      "inputs": [
        {
          "internalType": "uint256",
          "name": "",
          "type": "uint256"
        }
      ],
      "name": "mapPerson",
      "outputs": [
        {
          "internalType": "uint256",
          "name": "id",
          "type": "uint256"
        },
        {
          "internalType": "string",
          "name": "name",
          "type": "string"
        },
        {
          "internalType": "bool",
          "name": "_is",
          "type": "bool"
        }
      ],
      "payable": false,
      "stateMutability": "view",
      "type": "function"
    }
  ],
  "bytecode": "0x608060405234801561001057600080fd5b50610761806100206000396000f3fe608060405234801561001057600080fd5b50600436106100625760003560e01c80630bf2ee8d146100675780631f9aa8e1146101225780632dcf75fc146101405780633d586917146101f95780638129fc1c146102a0578063f851a440146102aa575b600080fd5b6101206004803603602081101561007d57600080fd5b810190808035906020019064010000000081111561009a57600080fd5b8201836020820111156100ac57600080fd5b803590602001918460018302840111640100000000831117156100ce57600080fd5b91908080601f016020809104026020016040519081016040528093929190818152602001838380828437600081840152601f19601f8201169050808301925050505050505091929192905050506102f4565b005b61012a610385565b6040518082815260200191505060405180910390f35b61016c6004803603602081101561015657600080fd5b810190808035906020019092919050505061038b565b604051808481526020018060200183151515158152602001828103825284818151815260200191508051906020019080838360005b838110156101bc5780820151818401526020810190506101a1565b50505050905090810190601f1680156101e95780820380516001836020036101000a031916815260200191505b5094505050505060405180910390f35b6102256004803603602081101561020f57600080fd5b810190808035906020019092919050505061045a565b6040518080602001828103825283818151815260200191508051906020019080838360005b8381101561026557808201518184015260208101905061024a565b50505050905090810190601f1680156102925780820380516001836020036101000a031916815260200191505b509250505060405180910390f35b6102a86105f3565b005b6102b261063e565b604051808273ffffffffffffffffffffffffffffffffffffffff1673ffffffffffffffffffffffffffffffffffffffff16815260200191505060405180910390f35b6040518060600160405280600154815260200182815260200160011515815250600080600154815260200190815260200160002060008201518160000155602082015181600101908051906020019061034e929190610664565b5060408201518160020160006101000a81548160ff0219169083151502179055509050506001806000828254019250508190555050565b60015481565b6000602052806000526040600020600091509050806000015490806001018054600181600116156101000203166002900480601f01602080910402602001604051908101604052809291908181526020018280546001816001161561010002031660029004801561043d5780601f106104125761010080835404028352916020019161043d565b820191906000526020600020905b81548152906001019060200180831161042057829003601f168201915b5050505050908060020160009054906101000a900460ff16905083565b60606001151560008084815260200190815260200160002060020160009054906101000a900460ff161515146104f8576040517f08c379a00000000000000000000000000000000000000000000000000000000081526004018080602001828103825260168152602001807f506572736f6e20646f65736ee28099742065786973740000000000000000000081525060200191505060405180910390fd5b6105006106e4565b60008084815260200190815260200160002060405180606001604052908160008201548152602001600182018054600181600116156101000203166002900480601f0160208091040260200160405190810160405280929190818152602001828054600181600116156101000203166002900480156105c05780601f10610595576101008083540402835291602001916105c0565b820191906000526020600020905b8154815290600101906020018083116105a357829003601f168201915b505050505081526020016002820160009054906101000a900460ff16151515158152505090508060200151915050919050565b600060018190555033600260006101000a81548173ffffffffffffffffffffffffffffffffffffffff021916908373ffffffffffffffffffffffffffffffffffffffff160217905550565b600260009054906101000a900473ffffffffffffffffffffffffffffffffffffffff1681565b828054600181600116156101000203166002900490600052602060002090601f016020900481019282601f106106a557805160ff19168380011785556106d3565b828001600101855582156106d3579182015b828111156106d25782518255916020019190600101906106b7565b5b5090506106e09190610707565b5090565b604051806060016040528060008152602001606081526020016000151581525090565b61072991905b8082111561072557600081600090555060010161070d565b5090565b9056fea265627a7a72315820bc883188e48c98d655d96f714c9c66e0dd41c057a5ea6d87cd2871866eda83e164736f6c63430005110032",
  "compiler": {
    "name": "solc",
    "version": "0.5.17+commit.d19bba13.Emscripten.clang",
    "optimizer": {
      "enabled": false,
      "runs": 200
    },
    "evmVersion": "petersburg"
  }
}